:020000040800F2
:10000000D8080020F50D0008A9070008AB07000874
:10001000AF070008B3070008B7070008000000009A
:10002000000000000000000000000000BB07000806
:10003000BD07000800000000BF070008C107000856
:100040000F0E00080F0E00080F0E00080F0E00081C
:100050000F0E00080F0E00080F0E00080F0E00080C
:100060000F0E00080F0E00080F0E00080F0E0008FC
:100070000F0E00080F0E00080F0E00080F0E0008EC
:100080000F0E00080F0E00080F0E00080F0E0008DC
:100090000F0E00080F0E00080F0E00080F0E0008CC
:1000A0000F0E00080F0E00080F0E00080F0E0008BC
:1000B000B72900085F3C0008D32900080F0E00088C
:1000C0000F0E00080F0E00080F0E00080F0E00089C
:1000D0000F0E00082F0B00080F0E00080F0E00086F
:1000E0000F0E00080F0E00080F0E00080F0E00087C
:1000F0000F0E00080F0E00080F0E00080F0E00086C
:100100000F0E00080F0E00080F0E00080F0E00085B
:100110000F0E00080F0E0008CB2F0008A3310008B7
:100120000F0E00080F0E00080F0E00080F0E00083B
:1001300000F002F800F05FF80AA090E8000C82449A
:100140008344AAF10107DA4501D100F054F8AFF277
:10015000090EBAE80F0013F0010F18BFFB1A43F0A5
:1001600001031847F04D0000104E00000A444FF004
:10017000000C10F8013B13F0070408BF10F8014B06
:100180001D1108BF10F8015B641E05D010F8016B4B
:10019000641E01F8016BF9D113F0080F1EBF10F8AF
:1001A000014BAD1C0C1B09D16D1E58BF01F801CBD2
:1001B000FAD505E014F8016B01F8016B6D1EF9D555
:1001C0009142D6D37047000000230024002500266A
:1001D000103A28BF78C1FBD8520728BF30C148BFAA
:1001E0000B607047642903F05186002070471FB5EB
:1001F0001FBD10B510BD03F011FF1146FFF7F7FF4B
:1002000000F008F803F02FFF03B4FFF7F2FF03BC80
:1002100000F032FC4FF4A06000F00CFE00F0C2FBD6
:100220004FF4E13000F037FC03F0ECF802F002FB91
:1002300003F0C8F903F05BF91422002140F2E73023
:1002400002F066FD02F02CFD03F0A4FC4FF4FA70FE
:1002500000F0E5FB03F0A8F902F01FFC41F61F4196
:1002600040F2E73002F058FE41F61F4140F2E7301D
:1002700002F07EFE03F09DF840F2DC5000F0CFFB70
:100280007AE277E2F948006800287DD1F8480068F2
:100290000068F7490968091DF54A401C11601028DB
:1002A0000DD2DFE800F00D08170C1E395675A6D9DF
:1002B000E4EEEDECEBEA4FF4FA7000F0B0FB54E240
:1002C00002F06FFC4FF47A7000F0A9FB5020E9496E
:1002D00008604AE202F023FC4FF47A7000F09FFBC2
:1002E00043E20020E449086002F0FDFB1420E149EC
:1002F000086003F0CFF903F05CF8E04802F0C4FBBB
:10030000DF4802F0C1FB0120DB49086002F0E4FB9A
:100310002820D849086028E202F043FC0020D64992
:10032000086002F0E0FB1420D249086003F0B2F943
:1003300003F03FF8D14802F0A7FBD14802F0A4FB3C
:100340000120CD49086002F0C7FB5020C949086070
:100350000BE202F0E4FB0020C749086002F0C3FB97
:100360001420C449086003F095F903F022F8C3484B
:1003700002F08AFBC24802F087FB0120BE490860F8
:1003800002F0AAFB502000E0F1E1BA490860ECE17C
:1003900002F007FC1420B74908600BE003F0B8FC3A
:1003A000B8490860084600684000202802DA03F0D7
:1003B000D7F900E0F2E700BF02F08EFB0020AE4963
:1003C00008604FF4C870B0490880B049088002F056
:1003D00067FC00BFA548001F00680028FAD102F0A2
:1003E0009EFB5020A34908604FF47A7000F017FB81
:1003F000BBE102F0D6FB0A209E4908600DE003F045
:1004000087FCA0490860084600684000202804DAFC
:1004100002F069FB03F0A4F900E0F0E700BF02F08E
:100420005BFB0020944908604FF4C870964908802F
:100430009649088002F034FC00BF8C48001F006819
:100440000028FAD102F06BFB50208A4908604FF473
:100450007A7000F0E4FA88E102F061FB142085492B
:10046000086003F07DF95020824908607DE1052095
:100470008049086002F095FB12E06FE13FE10FE177
:10048000C2E030E003F044FC7E49086008460068A2
:100490004000192804DA02F026FB03F02BFA00E0F2
:1004A000F0E700BF02F018FB0020734908604FF42A
:1004B000C870754908807549088002F0F1FB4FF457
:1004C000967000F0ACFA00BF6848001F0068002872
:1004D000FAD102F066FB5020664908604FF47A704A
:1004E00000F09DFA41E10520624908600020624960
:1004F00008604FF44871664801F052FF4FF44871AC
:10050000644801F04FFFC821624801F049FFC8214B
:100510005F4801F047FF4FF4966000F080FA0AE070
:1005200052481838006830B900BF50481038006889
:100530000028FAD100E0F3E700BFC82000F06FFA0E
:1005400002F0D1FAC82000F06AFA4A48006852491D
:100550000860484800685149086002F02AFF47488F
:1005600002F092FA464802F08FFA012042490860F0
:1005700002F0B2FA0020404908604FF4C8704249C6
:1005800008804FF4A0704149088002F089FB4FF4C5
:10059000967000F044FA02F00CFF384802F074FA4A
:1005A000374802F071FA0120334908600DE003F08A
:1005B000AFFB34490860084600684000192804DA97
:1005C00002F091FA03F096F900E0F0E700BF02F0C4
:1005D00083FA0020284908604FF4C8702A4908802F
:1005E0002A49088002F05CFB00BF2048001F006819
:1005F0000028FAD102F0D5FA50201E4908604FF4C5
:100600007A7000F00CFAB0E005201A4908600DE09D
:1006100003F07EFB1B49086008460068400019286B
:1006200004DA02F060FA03F0FBF900E0F0E700BF43
:1006300002F052FA0020104908604FF4C8701249C5
:1006400008801249088002F02BFB00BF0748001FFA
:1006500000680028FAD102F0A4FA50200549086089
:100660004FF47A7000F0DBF97FE0000018012342BC
:1006700074010020A00000206C0000204002002037
:100680005C0200201C00002070000020720000208E
:10069000002C01400034014064000020680000206C
:1006A0000A203A49086002F07CFA0DE003F030FBC2
:1006B00037490860084600684000192804DA02F04B
:1006C00012FA03F0ADF900E0F0E700BF02F004FA1F
:1006D0000020304908604FF4E1702F4908802F490D
:1006E000088002F0DDFA00BF2D4800680028FBD129
:1006F00001202849086050202449086035E00A207C
:100700002249086002F00BFA0DE003F001FB2049DA
:100710000860084600684000192804DA02F0E3F98E
:1007200003F07EF900E0F0E700BF02F0D5F9002009
:10073000184908604FF4E17017490880174908808C
:1007400002F0AEFA00BF164800680028FBD1012075
:100750001049086050200D49086006E002F060FA78
:100760004FF4FA7000F05BF900BF00BF03E00A200D
:1007700000F055F986E500BF0A4800680068632864
:100780007FF47FAD02F0AFF900BFFEE7A0000020CC
:100790001C0000206C00002070000020720000206F
:1007A0001C01234274010020704700BFFEE700BF18
:1007B000FEE700BFFEE700BFFEE7704770477047E7
:1007C000704700000CB50020019000906C48006854
:1007D00040F480306A49086000BF6948006800F44E
:1007E000003000900198401C0190009818B90198C1
:1007F000B0F5A06FF1D16248006800F4003010B18C
:100800000120009001E0002000900098012843D1D1
:100810005C48006840F010005A49086008460068CB
:1008200020F0030008600846006840F002000860FD
:100830005348406852494860084640684860084646
:10084000406840F4806048600846406820F47C10AE
:1008500048600846406840F4E81048600846006870
:1008600040F08070086000BF4548006800F00070EC
:100870000028F9D04248406820F003004049486011
:100880000846406840F00200486000BF3C484068AD
:1008900000F00C000828F9D10CBD10B5FFF792FF4D
:1008A00010BD10B53648006840F0010034490860BA
:1008B00008464068344908403149486008460068A5
:1008C000324908402E4908600846006820F480201C
:1008D00008600846406820F4FE0048604FF41F009E
:1008E0008860FFF7DAFF4FF000602949086010BD0B
:1008F00010B5002100200022214B5B6803F00C01A1
:1009000021B1042906D0082928D107E0214B224C27
:10091000236027E01F4B204C236023E0184B5B68CB
:1009200003F47010164B5B6803F48032022303EB70
:10093000904022B9194B4343174C23600DE0104BF4
:100940005B6803F4003323B1144B4343124C236020
:1009500003E0104B4343104C236003E00D4B0E4C5F
:10096000236000BF00BF064B5B68C3F303130C4C4E
:10097000E15C094B1B68CB40074C236010BD0000B5
:1009800000100240002002400000FFF8FFFFF6FECA
:1009900008ED00E000127A002000002000093D0070
:1009A0002400002010B56FF0040000F092FA2E48E9
:1009B00000682E49B0FBF1F02D4908700846007818
:1009C00000EB4001C1EBC0104FF6FF7101EAC0001F
:1009D0002849088010BD0146254A12784A434FF045
:1009E000E0235A6100229A611A46126942F001021C
:1009F0001A6100BF4FF0E022106900F001021AB145
:100A000000F48032002AF5D04FF0E022126922F083
:100A100001024FF0E0231A6100229A6170470146FB
:100A2000144A12884A434FF0E0235A6100229A6127
:100A30001A46126942F001021A6100BF4FF0E0222B
:100A4000106900F001021AB100F48032002AF5D0DA
:100A50004FF0E022126922F001024FF0E0231A6108
:100A600000229A61704700002000002000127A00E6
:100A70003400002036000020014600BF704700BF50
:100A8000C74A128802F04002002AF9D0C2B2C44B11
:100A90001B1D1A80704710B586B00446012144F230
:100AA000040000F051FD4FF40070ADF81400032075
:100AB0008DF8160018208DF8170005A9B94800F028
:100AC00087FA4FF48060ADF8140004208DF8170009
:100AD00005A9B44800F07CFA25208DF80000032019
:100AE0008DF801008DF8020001208DF803006846A2
:100AF00000F0A5F901940020ADF80800ADF80A0057
:100B0000ADF80C00ADF810000C20ADF80E0001A9F6
:100B1000A34801F0CEFC012240F22551A04801F08B
:100B200060FD01219E4801F050FD06B010BD2DE989
:100B3000FF5F40F225519A4801F038FE28B39848EB
:100B400001F0B4FD00F0FF0A9748008800F400406F
:100B5000D8B99548008800F4804068B1BAF10A0F0E
:100B600003D000209049088022E08F48008840F49C
:100B700000408D4908801BE0BAF10D0F06D18A486C
:100B8000008840F480408849088011E08648008849
:100B9000C0F30D00854901F800A083480088401C7F
:100BA0008149088008460088C72801DD00200880A8
:100BB0007D48008800F4004000287DD07B48007804
:100BC000A0F1300B59467AA003F020F9BBF10A0FCF
:100BD00073D2DFE80BF005090C30338D909AD7DA29
:100BE000012077490860D4E002F054FDD1E06F485D
:100BF000C0783038642148436C49097930390A2279
:100C000002FB010169484079303808446D49088089
:100C10006648007A3038642148436449497A30395B
:100C200002FB01016148807A303808446649088037
:100C300002F036F8ADE002F05DFEAAE05B48807895
:100C40003038642148435949C978303901EB810172
:100C500000EB410155480079303808445B49086091
:100C6000524880793038642148435049C979303935
:100C700001EB810100EB41014C48007A3038084417
:100C8000534908604948807A3038642148434749CD
:100C9000C97A303901EB810100EB41014348007B07
:100CA000303808444B4908604048807B3038642124
:100CB00048433E49C97B01E070E069E0303901EB0F
:100CC000810100EB41013948007C30380844424939
:100CD000086002F02DFC4048006800903D48036821
:100CE0003B480268394801683CA003F08FF850E0A7
:100CF00001F015FF4DE003F00BF83B490860084692
:100D000001682EA003F082F843E02848C07830380C
:100D1000642148432549097930390A2202FB01013F
:100D20002248407930380844304908601F498978A2
:100D30002B2901D1012100E00021084603F0FFFB2F
:100D4000804600222A4B03F00FFD00224FF0804323
:100D5000CDE9000103F00AFCCDE902012348006857
:100D600003F0EDFB0646DDE9022303F0FFFB04463A
:100D700003F0B6FB1D49086064211C48006802F0BE
:100D80008AFB06E001F0AFFE03E001F0A5FE00E003
:100D900000BF00BF00200449088000BFBDE8FF9FDE
:100DA0000038014000080140440000207801002084
:100DB000636F6D6D616E64747970653D25640A00C2
:100DC000180000207000002072000020BC000020ED
:100DD000C0000020C4000020C80000202564256455
:100DE000256425640A0000001C000020B4000020D7
:100DF0000000E03F0948804709480047FEE7FEE75A
:100E0000FEE7FEE7FEE7FEE7FEE7FEE7FEE7FEE7BA
:100E100004480549054A064B70470000A30800082E
:100E200031010008D8020020D8080020D804002092
:100E3000D804002031490143314A1160704770B530
:100E4000002100230F22C47804B32D4C246804F43D
:100E5000E064C4F5E064210AC1F10403CA404478A7
:100E600004FA03F18478144021430901254C0678E3
:100E7000A155047804F01F050124AC4005786D11DC
:100E8000AD0005F1E025C5F8004109E0047804F063
:100E90001F050124AC401C4D0678761145F826400C
:100EA00070BD1A4A0A400243154B1B1F1A60704757
:100EB00039B1134A121D12680243114B1B1D1A60EF
:100EC00006E00F4A121D126882430D4B1B1D1A606B
:100ED0007047042808D14FF0E021096941F004016E
:100EE0004FF0E022116107E04FF0E021096921F0A5
:100EF00004014FF0E0221161704700000000FA0584
:100F00000CED00E000E400E080E100E080FFFF1F66
:100F100010B50446CC48844208D10121042000F0D9
:100F20002DFB0021042000F029FB46E0C748844245
:100F300008D10121082000F021FB0021082000F049
:100F40001DFB3AE0C248844208D10121102000F084
:100F500015FB0021102000F011FB2EE0BD4884425B
:100F600008D10121202000F009FB0021202000F001
:100F700005FB22E0B848844208D10121402000F05E
:100F8000FDFA0021402000F0F9FA16E0B34884424F
:100F900008D10121802000F0F1FA0021802000F02A
:100FA000EDFA0AE0AE48844207D10121801500F035
:100FB000E5FA0021A01500F0E1FA10BD10B50121FD
:100FC000084600F0DBFA0021012000F0D7FA10BD3E
:100FD0002DE9F041024600250026002000230024D0
:100FE000002791F803C00CF00F0591F803C00CF036
:100FF000100CBCF1000F03D091F802C04CEA0505BB
:1010000091F800C0BCF1000F31D0146800202BE033
:101010004FF0010C0CFA00F3B1F800C00CEA030623
:101020009E4220D183004FF00F0C0CFA03F7BC4313
:1010300005FA03FC4CEA040491F803C0BCF1280F44
:1010400006D14FF0010C0CFA00FCC2F814C00AE003
:1010500091F803C0BCF1480F05D14FF0010C0CFA18
:1010600000FCC2F810C0401C0828D1D31460B1F8AD
:1010700000C0BCF1FF0F34DD546800202EE000F109
:10108000080C4FF0010808FA0CF3B1F800C00CEAA4
:1010900003069E4221D183004FF00F0C0CFA03F798
:1010A000BC4305FA03FC4CEA040491F803C0BCF10C
:1010B000280F05D100F1080C08FA0CF8C2F81480CA
:1010C00091F803C0BCF1480F07D100F1080C4FF0B4
:1010D000010808FA0CF8C2F81080401C0828CED38A
:1010E0005460BDE8F0814FF6FF71018002218170EC
:1010F0000421C17070470246002093680B400BB179
:10110000012000E0002070470146886880B27047E7
:1011100002460020D3680B400BB1012000E0002004
:1011200070470146C86880B27047016170474161ED
:1011300070470AB1016100E041617047C1607047CA
:101140004FF480320A4382618161826182698269DF
:10115000704702460020434B18684FF680731840D2
:1011600040EA021008433F4B186070473E49C8618F
:101170007047F0B50A46002300240021002500F046
:101180000046B6F1004F02D1364EF16901E0354E0E
:101190007168C0F3034583B200F44016B6F5401FF2
:1011A00008D121F070612F4E766826F070662D4FC1
:1011B0007E6012E000F48016B6F5801F06D103268B
:1011C00006FA05F4A14341F0706106E0460D3601D0
:1011D00003FA06F6B14341F0706122B1460D3601C3
:1011E00003FA06F6314300F00046B6F1004F02D193
:1011F0001C4EF16101E01B4E7160F0BD30B5002264
:101200008B071C0F0F2303FA04F2164B08338C10C4
:1012100053F824309343134C08348D1044F8253090
:1012200023468C1053F824308C07240F00FA04F462
:1012300023430C4C08348D1044F8253030BD0A4946
:10124000DC3108607047000000080140000C0140DC
:10125000001001400014014000180140001C014032
:10126000002001400000014000002042DF480068EB
:1012700040F00100DD49086008464068DC4908404C
:10128000DA49486008460068DA490840D7490860EA
:101290000846006820F4802008600846406820F472
:1012A000FE0048604FF41F0088607047CF4909680E
:1012B00021F48031CD4A11601146096821F4802162
:1012C0001160B0F5803F03D0B0F5802F0ED106E05D
:1012D000C649096841F48031C44A116007E0C34936
:1012E000096841F4A021C14A116000E000BF00BFBD
:1012F000704710B501460022002300204A11012A40
:1013000002D1BA4C236806E0022A02D1B74C236A04
:1013100001E0B64C636A01F01F02012494401C40B6
:101320000CB1012000E0002010BD38B50020009075
:101330000024002500BF3120FFF7DBFF05460098A1
:10134000401C00900098B0F5A06F01D0002DF2D0A5
:101350003120FFF7CEFF08B1012400E00024204631
:1013600038BD01460020A14A106820F0F80040EA8C
:10137000C10010607047A049086070470246002015
:101380009A4B586820F47C1042EA01031843974BAB
:101390005860704798490866704701460020934A94
:1013A000506820F003000843506070478F48406841
:1013B00000F00C007047014600208C4A506820F075
:1013C000F00008435060704701460020874A50688B
:1013D00020F4E06008435060704701460020834AD3
:1013E000506820F4605040EAC1005060704729B155
:1013F0007E4A527A02437D4B5A7204E07B4A527A0B
:1014000082437A4B5A7270477B49D83108607047E3
:1014100001460020754A506820F44040084350605F
:1014200070470021714A20321170704A82F82010F2
:10143000012802D004280AD104E001216B4A20329D
:10144000117005E00521694A2032117000E000BFEB
:1014500000BF70476949086070476449096A0143E1
:10146000624A11627047654944390860704730B577
:1014700000210022002400235C4D6D6805F00C0162
:1014800021B1042905D0082923D105E05C4D056070
:1014900022E05B4D05601FE0544D6D6805F470124D
:1014A000524D6D6805F48034022505EB92421CB95B
:1014B000544D554305600BE04C4D6D6805F4003507
:1014C0001DB1504D5543056002E04D4D554305603B
:1014D00002E04B4D056000BF00BF444D6D6805F054
:1014E000F0010909484D6B5C0568DD4045603F4DE2
:1014F0006D6805F4E061090A434D6B5C4568DD40A9
:1015000085603A4D6D6805F46051C90A3E4D6B5CCB
:101510004568DD40C560354D6D6805F44041890B77
:101520003A4D6B5CC568B5FBF3F5056130BD29B17B
:101530002E4A526902432D4B5A6104E02B4A5269EC
:1015400082432A4B5A61704729B1284A9269024363
:10155000264B9A6104E0254A92698243234B9A61A3
:10156000704729B1214AD2690243204BDA6104E075
:101570001E4AD26982431D4BDA61704729B11B4A6A
:10158000D2680243194BDA6004E0184AD2688243F9
:10159000164BDA60704729B1144A12690243134BA3
:1015A0001A6104E0114A12698243104B1A617047B4
:1015B00012494039086070470F49C86470470B49A9
:1015C000C87170470948406A40F080700749486216
:1015D000704701460020054A92680A400AB101207E
:1015E00000E00020704701498872704700100240F7
:1015F0000000FFF8FFFFF6FE000042428004424276
:1016000000127A0000093D0046000020560000202C
:1016100010B50446FE48844208D10121C014FFF7EA
:10162000ADFF0021E014FFF7A9FFC4E0B4F1804F43
:1016300008D101210846FFF7AEFF00210120FFF786
:10164000AAFFB8E0F348844208D101210220FFF745
:10165000A2FF00210220FFF79EFFACE0EE4884428B
:1016600008D101210420FFF796FF00210420FFF795
:1016700092FFA0E0E948844208D101210820FFF749
:101680008AFF00210820FFF786FF94E0E4488442A7
:1016900008D101211020FFF77EFF00211020FFF765
:1016A0007AFF88E0DF48844208D101212020FFF73B
:1016B00072FF00212020FFF76EFF7CE0DA488442B1
:1016C00008D101214014FFF759FF00216014FFF7F2
:1016D00055FF70E0D548844209D10121C804FFF7C5
:1016E0004DFF00214FF40020FFF748FF63E0D04892
:1016F000844209D101210805FFF740FF00214FF482
:101700008010FFF73BFF56E0CA48844209D101210F
:101710004805FFF733FF00214FF40010FFF72EFFBD
:1017200049E0C548844208D101214020FFF733FF3A
:1017300000214020FFF72FFF3DE0C048844208D140
:1017400001218020FFF727FF00218020FFF723FFE2
:1017500031E0BB48844208D101218015FFF71BFF0F
:101760000021A015FFF717FF25E0B648844209D1F4
:1017700001210804FFF702FF00214FF48030FFF73A
:10178000FDFE18E0B048844209D101214804FFF76A
:10179000F5FE00214FF40030FFF7F0FE0BE0AB4800
:1017A000844208D101218804FFF7E8FE00214FF4AC
:1017B0008020FFF7E3FE10BD00220288944B984280
:1017C0000ED0994B98420BD0B0F1804F08D0914B7E
:1017D000984205D0904B984202D0904B984204D149
:1017E0004FF68F731A404B881A438D4B984207D09F
:1017F0008C4B984204D04FF6FF431A40CB881A43D3
:1018000002808B8883850B880385814B98420BD09F
:10181000854B984208D08B4B984205D08A4B984212
:1018200002D08A4B984201D10B7A0386012383822E
:10183000704770B5002400220023058C4FF6FE7619
:1018400035400584028C8388048B4FF68F752C40BD
:10185000B51E2C400D882C43751E2A400D892A4345
:101860004D882A436A4DA8420BD06F4DA84208D03C
:10187000744DA84205D0744DA84202D0734DA842C1
:1018800013D14FF6F7752A404D892A434FF6FB7561
:101890002A408D882A434FF6FF652B404FF6FF55AF
:1018A0002B408D892B43CD892B4383800483CD88A6
:1018B0008586028470BD70B5002400220023058C4B
:1018C0004FF6EF7635400584028C8388048B48F60A
:1018D000FF752C404FF6FF452C400D884FF6FF76E4
:1018E00006EA05252C434FF6DF752A400D8906EAE6
:1018F00005152A434D8806EA05152A43444DA8429A
:1019000002D0494DA8421DD14FF67F752A404D891E
:101910004FF6FF7606EA05152A434FF6BF752A40B3
:101920008D8806EA05152A434FF6FF352B404FF206
:10193000FF752B408D8906EA85052B43CD8906EA84
:1019400085052B4383800483CD880587028470BD81
:1019500070B5002400220023058C4FF6FF66354049
:101960000584028C8388848B4FF68F752C404FF64C
:10197000FC752C400D882C434FF6FF552A400D89ED
:101980004FF6FF7606EA05252A434D8806EA052527
:101990002A431F4DA84202D0234DA8421DD14FF229
:1019A000FF752A404D894FF6FF7606EA05252A4342
:1019B0004FF6FF352A408D8806EA05252A434EF664
:1019C000FF752B404DF6FF752B408D8906EA0515F6
:1019D0002B43CD8906EA05152B4383808483CD886C
:1019E0008587028470BD70B5002200230024058C19
:1019F0004EF6FF7635400584038C8488828B48F64A
:101A0000FF752A404FF6FF452A400D8820E0000070
:101A1000002C01400004004000080040000C004081
:101A2000001000400014004000340140004C014010
:101A3000005001400054014000180040001C0040CC
:101A400000200040004001400044014000480140A7
:101A50004FF6FF7606EA05252A434DF6FF752B4023
:101A60000D8906EA05352B434D8806EA05352B43DB
:101A7000FA4DA84202D0FA4DA84208D14BF6FF75A4
:101A80002C408D894FF6FF7606EA85152C4384801D
:101A90008283CD88A0F84050038470BD828B4FF2C2
:101AA000FF331A408283828B4FF6FF7303EA0123D0
:101AB0001A4382837047F0B50C4615460022002178
:101AC0000026078C4EF6FF7C07EA0C070784828B02
:101AD000018C4FF6FF7707EA043640F6FF473A409D
:101AE0004FF6FF7707EA05273A434FF6FF7707EAF5
:101AF00003373A43D94FB8420ED0D94FB8420BD032
:101B0000B0F1804F08D0D74FB84205D0D64FB84279
:101B100002D0D64FB84206D14DF6FF77394046F491
:101B20008057394305E047F6FF57394044F4805762
:101B3000394382830184F0BD828B4FF6F3731A40E0
:101B40008283828B0A4382837047F0B50C46154628
:101B5000002200210026078C4FF6FF6C07EA0C07D5
:101B60000784828B018C4FF6FF7707EA04264FF635
:101B70000C773A404FF6FF7707EA03172F433A43B3
:101B8000B64FB8420ED0B64FB8420BD0B0F1804F2E
:101B900008D0B44FB84205D0B34FB84202D0B34FCB
:101BA000B84206D14FF6FF57394046F480773943A3
:101BB00005E04FF2FF57394044F480773943828380
:101BC0000184F0BD028B4FF2FF331A400283028B77
:101BD0004FF6FF7303EA01231A4302837047F0B5FF
:101BE0000C461546002200210026078C4FF6EF7C9C
:101BF00007EA0C070784028B018C4FF6FF7707EA90
:101C0000041640F6FF473A404FF6FF7707EA0337DE
:101C10003A434FF6FF7707EA05273A438F4FB8421A
:101C20000ED08F4FB8420BD0B0F1804F08D08D4FFF
:101C3000B84205D08C4FB84202D08C4FB84206D182
:101C40004FF6DF77394046F01007394305E04FF68D
:101C50005F77394044F01007394302830184F0BDB7
:101C6000028B4FF6F3731A400283028B0A430283FE
:101C70007047F0B50C46154600220021068C4FF641
:101C8000FE773E400684028B018C4FF60C76324084
:101C90007E1C06EA03162E433243704EB0420ED02D
:101CA0006F4EB0420BD0B0F1804F08D06D4EB042B5
:101CB00005D06D4EB04202D06C4EB04206D14FF608
:101CC000FD76314044F00106314305E04FF6F576EC
:101CD000314044F00106314302830184F0BD70B508
:101CE00005460C465D4885420ED05D4885420BD0C6
:101CF000B5F1804F08D05B48854205D05A488542EF
:101D000002D05A48854200D100E000BF208850B977
:101D10002389A28861882846FFF7ABFFE18828461F
:101D2000FFF79EFF25E0208804280AD12389A28896
:101D300061882846FFF753FFE1882846FFF742FFF6
:101D400017E0208808280AD12389A28861882846BC
:101D5000FFF7FBFEE1882846FFF7EEFE09E0238946
:101D6000A28861882846FFF7A6FEE1882846FFF78B
:101D700095FE70BD2DE9F04105460C460026012771
:101D8000608808B9022600E00026A088012801D159
:101D9000022700E001272088A0B92389A288618852
:101DA0002846FFF766FFE1882846FFF759FF238999
:101DB0003A4631462846FFF712FFE1882846FFF7EA
:101DC00001FF13E02389A28861882846FFF707FFF7
:101DD000E1882846FFF7F6FE23893A463146284631
:101DE000FFF747FFE1882846FFF73AFFBDE8F0819B
:101DF0000A884B881A438B881A43CB881A430B896D
:101E00001A434B891A438B891A43A0F84420704720
:101E10004FF6FF71818000210180C18041800172F5
:101E200070470021018041808180C1800181418112
:101E30008181C18170470021018041800121818021
:101E40000021C18001817047002101804180818093
:101E5000C18001814181818170470000002C0140D7
:101E6000003401400004004000080040000C004025
:101E700021B1028842F00102028004E002884FF69C
:101E8000FE731A400280704731B1B0F8442042F42A
:101E90000042A0F8442005E0B0F84420C2F30E024E
:101EA000A0F8442070471AB183890B43838102E074
:101EB00083898B43838170478182704741EA0203A3
:101EC000A0F8483070471AB183890B43838102E040
:101ED00083898B438381704701894FF6F8721140E3
:101EE000018170470A46002101894FF68F7319401E
:101EF00011430181704730B504460D4629462046FE
:101F0000FFF7F0FF208940F00700208130BD2DE968
:101F1000F04104460D4616461F46602D06D13B464D
:101F2000012231462046FFF75AFE05E03B460122DA
:101F300031462046FFF79DFE29462046FFF7D2FF97
:101F4000208940F007002081BDE8F08130B50C46C3
:101F500000210189C9B24FF6FF7505EA0325154333
:101F600025432943018130BD2DE9F04105460E4648
:101F700017469846002443463A4631462846FFF71E
:101F8000E5FF2C894FF6F870044044F007044FF643
:101F90008F70044044F070042C81BDE8F081F0B5EE
:101FA00004460D4616461F463B4632462946204605
:101FB000FFF7CCFF208940F480402081F0BD0185EF
:101FC000828270470A46002101884FF68F731940BC
:101FD000114301807047F0B50C4615461E4600219E
:101FE000002200230189028B038C4FF6F8773940D9
:101FF00021434FF6FC473A4040F201173A434FF66F
:10200000DD773B404FF6FF7707EA06172F433B4348
:10201000018102830384F0BD0A460021018B4FF643
:102020008F7319401143018370470A460021018BC9
:1020300048F6FF7319404FF6FF7303EA0223194372
:10204000018370470A460021818B4FF68F73194038
:102050001143818370470A460021818B48F6FF7344
:1020600019404FF6FF7303EA022319438183704737
:1020700021B1028842F08002028004E002884FF61B
:102080007F731A400280704721B1828842F00402B7
:10209000828004E082884FF6FB731A40828070478A
:1020A00021B1828842F00802828004E082884FF6E3
:1020B000F7731A408280704721B1828842F0010292
:1020C000828004E082884FF6FE731A408280704757
:1020D0000A460021018B4FF6F77319401143018323
:1020E00070470A460021018B4FF2FF7319404FF6EB
:1020F000FF7303EA02231943018370470A46002154
:10210000818B4FF6F77319401143818370470A465C
:102110000021818B4FF2FF7319404FF6FF7303EAE2
:1021200002231943818370470A460021018B4FF631
:10213000FB7319401143018370470A460021018B4C
:102140004FF6FF3319404FF6FF7303EA022319439A
:10215000018370470A460021818B4FF6FB731940BB
:102160001143818370470A460021818B4FF6FF336C
:1021700019404FF6FF7303EA022319438183704726
:102180000A460021018B4FF67F73194011430183EA
:1021900070470A460021018BC1F30E014FF6FF7311
:1021A00003EA02231943018370470A460021818B09
:1021B0004FF67F7319401143818370470A4600210F
:1021C000818BC1F30E014FF6FF7303EA022319431B
:1021D000818370470A460021018C4FF6FD73194038
:1021E0001143018470470A460021018C4FF6F773B2
:1021F00019401143018470470A460021018C4FF6B3
:10220000DF7319404FF6FF7303EA02131943018489
:1022100070470A460021018C4FF67F7319404FF634
:10222000FF7303EA02131943018470470A46002131
:10223000018C4FF6FF5319404FF6FF7303EA022358
:102240001943018470470A460021018C4FF2FF7345
:1022500019404FF6FF7303EA0223194301847047C4
:102260000A460021018C4DF6FF7319404FF6FF73AB
:1022700003EA023319430184704730B50023012477
:102280008C40A3B2048C9C430484048C02FA01F5B4
:10229000ADB22C43048430BD30B5002304248C40FF
:1022A000A3B2048C9C430484048C02FA01F5ADB201
:1022B0002C43048430BD70B503460020002418462A
:1022C000183001258D40ACB21D8CA5431D8409B189
:1022D000082909D100EB6100056825F0700505604B
:1022E0000568154305600EE00D1FC5F34E05284433
:1022F000056825F4E045056005684FF6FF7606EAB7
:1023000002263543056070BD21B1028842F0020209
:10231000028004E002884FF6FD731A400280704785
:1023200021B1028842F00402028004E002884FF6E4
:10233000FB731A400280704721B1828842F080020C
:10234000828004E082884FF67F731A408280704753
:1023500002884FF6F7731A40028002880A4302800F
:10236000704782884FF68F731A40828082880A43B2
:102370008280704702894FF6F8731A400281028901
:102380000A430281704702894FF67F731A40028127
:1023900002890A43028170478184704781857047B2
:1023A000818670470187704781877047A0F8401089
:1023B000704702884FF6FF431A40028002880A43A2
:1023C000028070470146888E70470146088F70472B
:1023D0000146888F70470146B1F8400070470146BA
:1023E000888C70470146088D704702460020138A8A
:1023F0000B400BB1012000E000207047CA4302826D
:10240000704730B50246002000230024158A05EAF3
:102410000103958905EA010413B10CB1012000E024
:10242000002030BDCA4302827047000010B5044648
:10243000FB48844209D101218803FFF79FF800215E
:102440004FF48040FFF79AF832E0F648844209D111
:1024500001214804FFF79FF800214FF40030FFF7F7
:102460009AF825E0F048844209D101218804FFF759
:1024700092F800214FF48020FFF78DF818E0EB4828
:10248000844209D10121C804FFF785F800214FF4E7
:102490000020FFF780F80BE0E548844208D10121D5
:1024A0000805FFF778F800214FF48010FFF773F864
:1024B00010BD2DE9F04786B005460E460024A24621
:1024C00000BFA1460027B08900B100BF2F462C8A6B
:1024D0004CF6FF700440F08804432C82AC894EF621
:1024E000F3100440B08831890843718908430443DC
:1024F000AC81AC8A4FF6FF400440B0890443AC8203
:1025000001A8FEF7B4FFC648874202D1DDF810A04B
:1025100001E0DDF80CA0A88900F4004040B10AEB0E
:10252000CA0000EB0A1031684900B0FBF1F807E07F
:102530000AEBCA0000EB0A1031688900B0FBF1F821
:102540006420B8FBF0F004012009642101FB10892C
:10255000A88900F4004040B1322000EBC900B0FB74
:10256000F1F000F00700044308E0322000EB09100E
:102570006421B0FBF1F000F00F0004432C8106B0A1
:10258000BDE8F0874FF41651016000218180C180C1
:1025900001810C21418100218181704710B50246E3
:1025A0000020108A4FF2FF0318400B884C88234309
:1025B0008C882343CC8823431843108210BD00210C
:1025C000018041808180C180704721B1828942F4BD
:1025D0000052828104E082894DF6FF731A408281A5
:1025E0007047F0B50346002400260025002040F681
:1025F0006A17B94200D100BF1846C1F3421401F076
:102600001F06012707FA06F5012C01D10C3004E062
:10261000022C01D1103000E014301AB107682F43AA
:10262000076002E00768AF430760F0BD1AB1838A14
:102630000B43838202E0838A8B4383827047028A42
:102640004FF6F0731A400282028A0A4302827047F0
:1026500082894FF2FF731A40828182890A43828104
:10266000704721B1828942F00202828104E08289AE
:102670004FF6FD731A4082817047028A4FF6DF736E
:102680001A400282028A0A430282704721B1028AFA
:1026900042F48042028204E0028A4BF6FF731A4041
:1026A00002827047C1F30802828070470146888821
:1026B000C0F308007047818941F0010181817047B2
:1026C000028BD2B20283028B42EA0122028370475C
:1026D000028B02F47F420283028B0A43028370471B
:1026E00021B1828A42F02002828204E0828A4FF67F
:1026F000DF731A408282704721B1828A42F0100251
:10270000828204E0828A4FF6EF731A408282704719
:1027100021B1828A42F00802828204E0828A4FF666
:10272000F7731A408282704721B1828942F40042D5
:10273000828103E08289C2F30E028281704721B157
:10274000828A42F40062828204E0828A4FF2FF733E
:102750001A4082827047828A4FF6FB731A40828247
:10276000828A0A438282704721B1828A42F0020241
:10277000828204E0828A4FF6FD731A40828270479B
:1027800002460020B1F5007F00D100BF13880B4046
:102790000BB1012000E00020704701F40072B2F597
:1027A000007F00D100BFCA430280704770B5024667
:1027B000002400230025002040F66A16B14200D113
:1027C00000BFC1F3421501F01F03012606FA03F30F
:1027D000012D02D19689334006E0022D02D1168ADE
:1027E000334001E0968A33400C12012606FA04F4C5
:1027F0001688344013B10CB1012000E0002070BDF8
:1028000010B50022002340F66A14A14200D100BF97
:102810000A1201249440A3B2DC43048010BD0000DE
:10282000003801400044004000480040004C004097
:102830000050004000B589B001210520FEF791FE4F
:1028400001210C20FEF780FE01210846FEF77CFEE8
:1028500001216748FEF78DFC01216648FEF789FCDF
:1028600002A8FEF740FC4FF40040ADF808004820F5
:102870008DF80B0002A96048FEF7AAFBC820ADF84E
:10288000080002A95D48FEF7A3FB4FF08040FEF769
:10289000BFFE5B48FEF7BCFE06A8FFF7B9FA4FF68D
:1028A000FF70ADF81C0006A94FF08040FEF784FFD2
:1028B00006A95448FEF780FF00231A4603214FF073
:1028C0008040FFF788FB00231A4603214D48FFF79D
:1028D00082FB03A8FFF7AFFA0A20ADF8140003A9A2
:1028E0004007FFF7FCF903A94648FFF7F8F9042071
:1028F000ADF80C0003A90007FFF7F1F903A941485F
:10290000FFF7EDF91C208DF8040000208DF805007C
:1029100003208DF8060001208DF8070001A8FEF7BE
:102920008EFA1E208DF8040001A8FEF788FA012116
:102930008807FFF763FD01213248FFF75FFD0122A1
:1029400011469007FFF7AFFA012211462D48FFF715
:10295000AAFA00214FF08040FFF71EFD0021294810
:10296000FFF71AFD01218807FFF782FA01212548A8
:10297000FFF77EFA09B000BD0146022902D0042902
:1029800008D103E04FF08042908C05E01D4A2432CC
:10299000108801E0002000BF00BF70474FF0804169
:1029A0000988012222EA111101601649098822EAE8
:1029B00011114160704710B501218807FFF721FD13
:1029C00010B101201049086001218807FFF72AFD96
:1029D00010BD10B501210B48FFF713FD10B1012008
:1029E0000A49086001210748FFF71CFD10BD0000DF
:1029F000000230000001180000080140000C0140F6
:102A000000040040000800405C000020600000203E
:102A10002DE9FC5F04460D462068461BA06902F0C4
:102A2000D9F88246216902F021F98146606902F0F5
:102A3000D1F80090E16802F019F98246304602F0C0
:102A4000C9F80090A16802F011F98346514602F0DE
:102A50000BFA4946019001F071FF804602F09EF8A2
:102A600007466069A061666198480068B84201DA6B
:102A7000384601E095480068944908603846BDE84A
:102A8000FC9F016070477047002141618161416096
:102A900070478160C2600361704700B58C4801686F
:102AA0008C48FFF7EEFF8C4801688C48FFF7E9FF80
:102AB0008B4B8C4A8C498748FFF7EBFF884B5B1E9A
:102AC000884A89498548FFF7E4FF8248FFF7DCFF21
:102AD0008248FFF7D9FF00BD00208449086084497F
:102AE000C1F8A401704710B50120804908608049F1
:102AF000C1F8A4014FF4FA717E48FFF751FC4FF47E
:102B0000FA717D48FFF74EFC4FF4FA717A48FFF7EF
:102B100047FC4FF4FA717748FFF744FC10BD10B53D
:102B20000020764908604FF448717248FFF738FC7E
:102B30004FF448717048FFF735FCC8216E48FFF725
:102B40002FFCC8216B48FFF72DFC4FF49660FDF772
:102B500066FF09E06A48006830B900BF684808307D
:102B600000680028FAD100E0F4E700BFFFF7BBFFE0
:102B7000C820FDF754FF6348006855490860614864
:102B800000685549086000F014FC5248FFF77CFFCC
:102B90005248FFF779FF012058490860FFF79CFF72
:102BA00010BD10B5002055490860C8215148FFF7F5
:102BB000F7FBC8215048FFF7F5FB4FF448714E482A
:102BC000FFF7EEFB4FF448714A48FFF7EBFB4FF479
:102BD0009660FDF724FF06E000BF4948001D00682D
:102BE0000028FAD100E0F7E700BFFFF77CFFC8201C
:102BF000FDF715FF43480068354908604148006803
:102C00003549086000F0D5FB3248FFF73DFF3348F7
:102C1000FFF73AFF012039490860FFF75DFF10BD5B
:102C200010B5002035490860FFF756FFC82131482C
:102C3000FFF7B6FBC8213048FFF7B4FB4FF44871EB
:102C40002D48FFF7ADFB4FF448712A48FFF7AAFB68
:102C50004FF49660FDF7E3FE0CE02948006830B9B8
:102C600000BF2748083000680028FAD103E032206E
:102C7000FDF7D5FEF1E700BFFFF735FF4FF44870D1
:102C8000FDF7CDFE00F095FB1248FFF7FDFE13485F
:102C9000FFF7FAFE012019490860FFF71DFF10BD7C
:102CA00010B5194801881348FFF77AFB16480188C8
:102CB0001148FFF777FB154801880F48FFF770FBB5
:102CC000124801880B48FFF76DFB10BD740000200F
:102CD0006400002040020020680000205C02002008
:102CE000C3F5A83D8FC25D403D0AA140A00122422C
:102CF00000002242002C0140003401406C00002002
:102D000000012342A000002070000020720000207B
:102D100070B58CB006460C46154601215C20FEF7C6
:102D200013FC01210846FEF70FFC01214FF420504F
:102D3000FEF70AFC01217148FEF71BFA4FF47060A0
:102D4000ADF82C0018208DF82F0003208DF82E00F0
:102D50000BA96B48FEF73CF98020ADF82C00182039
:102D60008DF82F0003208DF82E000BA96548FEF783
:102D70002FF90120ADF82C000BA96348FEF728F9C4
:102D8000C020ADF82C000BA96048FEF721F92820DF
:102D90008DF82F004FF40040ADF82C000BA95848D7
:102DA000FEF716F94020ADF82C000BA95548FEF7A8
:102DB0000FF94FF470615248FEF7B7F9802151487E
:102DC000FEF7B3F901215048FEF7AFF9C0214F4893
:102DD000FEF7ABF910208DF82F004FF44070ADF8DE
:102DE0002C000BA94948FEF7F3F84FF4407147480F
:102DF000FEF79DF9ADF82460ADF820400020ADF855
:102E00002600ADF822008DF8280008A94048FEF7FA
:102E1000D3FC08A93F48FEF7CFFC6020ADF81000B6
:102E20000020ADF81800ADF81A00ADF81C00ADF8A0
:102E30001E000120ADF812000420ADF8140004A912
:102E40003348FEF7F6FC08213148FFF741F904A9A1
:102E50002F48FEF730FD08212D48FFF742F904A95D
:102E60002C48FEF7E6FC08212A48FFF731F904A9AF
:102E70002848FEF720FD08212648FFF732F94FF4D5
:102E80000060ADF800004010ADF802008010ADF811
:102E90000400ADF806500001ADF808004000ADF8A0
:102EA0000A004000ADF80C0069461948FEF7A0FF83
:102EB00069461848FEF79CFF01211548FFF7FCF80A
:102EC00001211448FFF7F8F801211148FFF7D0F865
:102ED00001211048FFF7CCF801210D48FEF7D4FF7F
:102EE00001210C48FEF7D0FF01210948FEF7C0FF81
:102EF00001210848FEF7BCFF0CB070BDC0001600F1
:102F00000018014000080140000C01400010014081
:102F1000002C0140003401407FB505460C460121DC
:102F20001020FEF71EFBADF80850ADF8044000205D
:102F3000ADF80A00ADF8060001A9A048FEF73CFC78
:102F4000012211469D48FEF7AEFF36208DF80000A5
:102F500002208DF801008DF8020001208DF8030099
:102F60006846FDF76CFF01219448FEF781FF7FBDA5
:102F70007FB505460C4601212020FEF7F2FAADF898
:102F80000850ADF804400020ADF80A00ADF8060086
:102F900001A98B48FEF710FC012211468848FEF774
:102FA00082FF37208DF8000001208DF801000320FA
:102FB0008DF8020001208DF803006846FDF73FFF01
:102FC00001217F48FEF754FF7FBD2DE9FC47012119
:102FD0007A48FFF716FA00287ED00220FFF7CCFCD3
:102FE00000900420FFF7C8FC01907648FFF7D6FC5C
:102FF0007548006800282DD17448006850BB744A99
:1030000000991268881A01F09AFA80460022714BE2
:1030100001F00EF9064600226F4B01F0A7FA0446B4
:1030200001F05EFA6D490860694A01995268881A90
:1030300001F085FA80460022664B01F0F9F8064659
:103040000022654B01F092FA044601F049FA634907
:10305000486077E05C480068002836D0594800682E
:10306000C0B15B4909684FF6FF72511A009A88187F
:1030700001F065FA80460022564B01F0D9F8064669
:103080000022554B01F072FA044601F029FA534927
:10309000086017E04E4A009912684FF6FF731A4411
:1030A000881A01F04CFA804600224A4B01F0C0F821
:1030B00006460022484B01F059FA044601F010FA86
:1030C00046490860002040490860404800680028E0
:1030D00038D03C48406800E061E0C0B13C494968F4
:1030E0004FF6FF72511A019A881801F028FA064625
:1030F0000022384B01F09CF804460022364B01F0C8
:1031000035FA804601F0ECF93449486017E0304A5E
:10311000019952684FF6FF731A44881A01F00FFAAA
:10312000064600222B4B01F083F8044600222A4B6E
:1031300001F01CFA804601F0D3F9284948600020CC
:103140002249086022490098086001984860244894
:103150000068F8B1234801682348FFF792FC234830
:1031600001682348FFF78DFC1C4801681E48FFF7E3
:103170004FFC2049098808441E49088017484168C7
:103180001B48FFF745FC1C49098808441A49088078
:10319000FFF786FD01210948FFF744F900BFBDE8AC
:1031A000FC8710B501210648FFF72BF928B100F084
:1031B000F8F801210248FFF735F910BD0010004072
:1031C00000140040080000205C0000206000002087
:1031D000100000200000844000C082400000002059
:1031E0006C000020640000204002002068000020E5
:1031F0005C0200207000002072000020744800680B
:103200007449096808447449086071480068714944
:103210000968401A714908606F48006810F1500F42
:1032200002DA6FF04F0007E06B480068502801DDBC
:10323000502001E0684800686749086067480068F6
:1032400010F1500F02DA6FF04F0007E0634800689A
:10325000502801DD502001E0604800685F490860A7
:1032600070472DE9F0475E4800685E4908605E4897
:1032700000685B49096808445B4908605848006871
:103280005A490968401A5A4908600846006801F01E
:10329000A1FC074657480168384601F0E7FC05469F
:1032A0005148006801F096FC814653480168484641
:1032B00001F0DCFC07464B48006801F08BFC8146BE
:1032C0004E480168484601F0D1FC8046394601F07D
:1032D00035FB0646294601F031FB044601F05EFC51
:1032E0003C4908600846006810F1500F02DA6FF0A0
:1032F0004F0007E037480068502801DD502001E00A
:103300003448006833490860354800683749086028
:10331000BDE8F0873A49096801F00F0010283ED255
:10332000DFE800F03D253D2A3D3D3D2F1D213D3488
:10333000193915082A490968002904DA6FF00601CD
:10334000274A116002E00721254A116027E0052184
:10335000234A116023E00321214A11601FE001216B
:103360001F4A11601BE000211D4A116017E04FF059
:10337000FF311B4A116012E06FF00201184A116020
:103380000DE06FF00401164A116008E06FF00401CF
:10339000134A116003E00521114A116000BF00BF0C
:1033A000704710B5FFF7B6FFFFF75BFFFFF726FF8B
:1033B00010BD00200A4908600A4908600A490860EF
:1033C0000B4908600349086008490860704700001D
:1033D000A00000209400002064000020680000206D
:1033E00084000020880000208C000020980000202D
:1033F00090000020800000207C0000207800002049
:103400000818014008B501214020FEF79DF8EF2083
:10341000ADF8000004208DF8030003208DF80200B1
:1034200069460248FDF7D4FD08BD000000180140C0
:10343000002105E0002200E0521C702AFCD3491C48
:103440008142F7D3704710B500213548FDF776FE6D
:1034500010BD70B50546002409E03248015D3048D2
:10346000FDF76CFE2846FFF7E3FF601CC4B2082C92
:10347000F3DB70BD70B50546002409E02A48015D04
:103480002748FDF75BFE2846FFF7D2FF601CC4B259
:10349000082CF3DB70BD2DE9F05F81468A464FEAC8
:1034A000891001F04CF807460022204B00F0C0FEC6
:1034B000054601F015F88346B9F1000F08DD002438
:1034C00003E05046FFF7D6FF641C5C45F9DB0CE0D7
:1034D000B9F1000F09DA002403E05046FFF7B9FF05
:1034E000641CCBF100008442F7DBBDE8F09F08B517
:1034F00001212020FEF728F80F20ADF80000102051
:103500008DF8030003208DF8020069460448FDF79A
:103510005FFD64215020FFF7BEFFFFF794FF08BD59
:1035200000140140AC000020A400002000804640B0
:1035300010B51420FDF773FAFE480068C0F59670C8
:1035400081B2FD48FEF72EFF1420FDF768FAFB4814
:10355000008881B2F848FEF723FF1420FDF75FFAD8
:10356000F748008881B2F448FEF71EFF1420FDF7EB
:1035700056FAF448008881B2EF48FEF717FF10BDF5
:1035800010B5BB20ED4908602D20EA4908606E2087
:10359000EB4908606420EB490860FFF7C9FF64212C
:1035A0008C20FFF778FF10BD10B564216FF04F003D
:1035B000FFF771FF10BD10B564216FF08B00FFF7AE
:1035C0006AFF10BD00B589B001210520FDF7BCFFE1
:1035D00001210820FDF7C5FF0F20ADF820001820BD
:1035E0008DF8230003208DF8220008A9D648FDF7A6
:1035F000EFFC40F2CF70ADF8180040F2CF20ADF8EC
:1036000014000020ADF81A00ADF8160005A9CA484C
:10361000FEF7D2F86020ADF804000020ADF80C00F1
:103620000120ADF8060001A9C348FEF702F9082100
:10363000C148FEF74DFD01A9BF48FEF73CF908213E
:10364000BD48FEF74EFD01A9BB48FEF781F90821F0
:10365000B948FEF753FD01A9B748FEF7C4F90821A0
:10366000B548FEF754FD0121B348FEF701FCFFF712
:103670005FFF09B000BD10B5BB20B04908602D2028
:10368000AC4908606420AE490860AE490860FFF7A5
:103690004FFF10BD10B5C820A8490860E620A54915
:1036A00008605020A64908606420A6490860FFF71A
:1036B0003FFF4FF49670FDF7B2F9DA209F4908609A
:1036C00046209F490860FFF733FF4FF4FA70FDF77B
:1036D000A6F9FFF76EFE9D48FFF7D6F99C48FFF765
:1036E000D3F901209B490860FFF7F6F900BF9A481B
:1036F000006800F00F000028F9D196490860FFF734
:10370000F2F996208F490860FFF712FF4FF47A70A4
:10371000FDF785F9BD20894908605A20884908606D
:10372000FFF706FFC820FDF77AF9BD20834908603E
:103730002D2080490860642081490860FFF7F8FE69
:103740004FF47A70FDF76BF964207E490860FFF74B
:10375000EFFE4FF47A70FDF762F9FFF78CFF10BDB2
:1037600010B5012400207B490860FFF7BCF9B420A4
:1037700072490860E4206F4908607320704908604E
:10378000642070490860FFF7D3FE4FF47A70FDF7AC
:1037900046F9FFF70EFE6D48FFF776F96C48FFF724
:1037A00073F9FFF799F901206A4908604FF42F7007
:1037B000FDF735F9002067490860FFF794F94FF4E9
:1037C000FA70FDF72CF996205E490860FFF7B0FE0D
:1037D0004FF47A70FDF723F925E0584800680B385C
:1037E000564908604FF49670FDF719F9FFF7A0FEEF
:1037F0005048006808384F4908604FF49670FDF74C
:103800000EF9FFF795FE4E48006808304C490860F5
:103810004FF49670FDF703F9FFF78AFE4FF4FA7044
:10382000FDF7FDF8641C032CD7DB4FF4FA70FDF7AD
:10383000F6F8404800680A383E490860FFF778FE0D
:10384000BB203E4908602D203A49086064203C496D
:103850000860FFF76DFE4FF47A70FDF7E0F8642022
:1038600038490860FFF764FE4FF4FA70FDF7D7F8A7
:10387000FFF701FF10BD10B5B62030490860642085
:103880002F4908602F490860FFF752FE4FF4FA7085
:10389000FDF7C5F896202B490860FFF749FE4FF465
:1038A000FA70FDF7BCF8BB20244908607820244951
:1038B0000860FFF73DFE4FF4FA70FDF7B0F8AF2057
:1038C0001E490860C3201B49086096201C490860F7
:1038D000FFF72EFE4FF47A70FDF7A1F86420194926
:1038E0000860FFF725FE4FF4FA70FDF798F8FFF730
:1038F000C2FE10BD10B5B620104908606420104902
:10390000086010490860FFF713FE4FF4FA70FDF7E6
:1039100086F896200B490860FFF70AFE4FF4FA700C
:10392000FDF77DF8BB200549086078200449086050
:1039300014E00000C0000020000C0040BC0000208B
:10394000C4000020C8000020000801404002002000
:103950005C0200206C00002008180140FFF7E8FD21
:103960004FF4FA70FDF75BF8AF2082490860BE2083
:1039700081490860962081490860FFF7D9FD4FF41E
:103980007A70FDF74CF864207D490860FFF7D0FDA0
:103990004FF4FA70FDF743F8FFF76DFEFFF7F0FD07
:1039A000B62074490860642074490860744908604E
:1039B000FFF7BEFD4FF4FA70FDF731F8962070491D
:1039C0000860FFF7B5FD4FF4FA70FDF728F8BB204B
:1039D00068490860782069490860FFF7A9FD4FF43D
:1039E000FA70FDF71CF8AF2062490860BE206249FA
:1039F0000860962061490860FFF79AFD4FF47A70DD
:103A0000FDF70DF864205E490860FFF791FD4FF463
:103A1000FA70FDF704F8FFF72EFEFFF7CCFD10BD9E
:103A200010B5B620534908606420544908605449D1
:103A30000860FFF77DFD4FF4FA70FCF7F0FF962069
:103A40004F490860FFF774FD4FF4FA70FCF7E7FF89
:103A5000BB2048490860782048490860FFF768FDA6
:103A60004FF4FA70FCF7DBFFBE2042490860DC200F
:103A7000414908606E2041490860FFF759FD4FF445
:103A80007A70FCF7CCFF64203D490860FFF750FDD9
:103A90004FF4FA70FCF7C3FFFFF7EDFDFFF770FD81
:103AA00038480068012820D1FFF716F80020364971
:103AB00008604FF42F70354908804FF496703449F0
:103AC0000880FFF7EDF84FF44870FCF7A8FF4FF4BB
:103AD0002F702E4908802E490880FFF7E1F84FF437
:103AE0007A70FCF79CFFFEF7FEFFB62021490860C4
:103AF00064202249086022490860FFF719FD4FF44D
:103B0000FA70FCF78CFF96201D490860FFF710FD46
:103B10004FF4FA70FCF783FFBB2016490860782049
:103B200016490860FFF704FD4FF4FA70FCF777FFC1
:103B3000BE2010490860DC200F4908606E200F4944
:103B40000860FFF7F5FC4FF47A70FCF768FF64201B
:103B50000B490860FFF7ECFC4FF4FA70FCF75FFFCD
:103B6000FFF789FDFFF727FD06480068401C05495F
:103B7000086010BDBC000020C0000020C400002070
:103B8000C8000020B80000206C0000207000002059
:103B90007200002000B589B001210220FDF7E1FC90
:103BA00001212820FDF7D0FC4020ADF82000102096
:103BB0008DF8230003208DF8220008A98648FDF720
:103BC00007FA40218448FDF7B2FA0220ADF8200040
:103BD00028208DF8230008A98048FDF7F9F9012174
:103BE0007E48FDF7A4FA4FF6FF70ADF80C004720B1
:103BF000ADF808000020ADF80E00ADF80A0002A9EB
:103C00007748FDF7D9FD0C20ADF814000020ADF881
:103C100016000120ADF818000020ADF81A00ADF82C
:103C20001C0005A96E48FEF75AF81D208DF8040007
:103C300002208DF8050000208DF8060001208DF887
:103C4000070001A8FDF7FBF8012211216448FEF7E7
:103C50002AF901216248FEF70BF909B000BD10B541
:103C60006048007800F0800000284CD101215C48B9
:103C7000FEF7C7FBD0B15B48007800F04000A8B168
:103C80005848007800F03F003F280AD15548007896
:103C900040F08000534908704FF6FF705249088089
:103CA00004E050480078401C4E49087010214C48F0
:103CB000FEF7A7FB38B34B48007800F0400078B11E
:103CC0004848007840F08000464908704448FEF7B4
:103CD00082FB4549088000214148FEF7C1FA12E005
:103CE0000020404908704049088000213C48FEF708
:103CF00053FB3C48007840F040003A4908700221EC
:103D00003748FEF7ADFA11213548FEF78BFB10BDA1
:103D10002DE9F84F4FF0000A002000904FE03348A3
:103D2000006808B9012000E0002030490860142034
:103D3000FCF751FE2E48D0F8980108B9012000E0A8
:103D400000202A49086009E02648007800F0800039
:103D500000B104E04FF4FA70FCF73DFEF4E700BF59
:103D60002049097801F03F011F4A128802EB014007
:103D700000F0E5FB064600221E4B00F0F7FB044670
:103D800000221D4B00F054FA804600F077F983467C
:103D90001A49584601F036F80AD21949584600F037
:103DA00031FF05D25946009800F0C8FD009001E0AF
:103DB000AAF1010A00200B4908700AF1010ABAF1C0
:103DC0000A0FACDB0F49009800F026FE044600F015
:103DD000E5FEBDE8F88F000000140140000C014032
:103DE00000040040D0000020D20000209881224230
:103DF000008022420000314000408F400000A0407F
:103E00000000484200002041704700000FB4044900
:103E100010B503AA029800F0D3F810BC5DF814FBAB
:103E2000400000202DE9F0410E46044600202062AB
:103E30002046E168884730B3252805D0D4E9012120
:103E40009047206A401CF2E7E16820460027884737
:103E5000050018D0A5F14100192802D820354FF4EB
:103E600000673246294620462760FCF7BBF940B17F
:103E7000012804D0F61D26F007060836D8E7361DBF
:103E8000D6E72846DAE7206ABDE8F0812DE9F0415F
:103E90000646002410687529314616A510D0AFF3E8
:103EA0000080002802DA404213A507E031688A0743
:103EB00001D512A502E0490704D511A5012401E0AE
:103EC000AFF3008000210A2206F1240709E0B0FBCD
:103ED000F2FCB0FBF2F302FB1C00303078541846C1
:103EE000491C0028F3D123462A463046BDE8F0415C
:103EF00000F00CB8000000002D0000002B000000B6
:103F00002000000070477047704770472DE9F04768
:103F10000D4699469246044600F124080168880639
:103F200004D5E06921F01001216000E00120A842E1
:103F300001DD471B00E00027A1697A1902EB0900A7
:103F4000081AA0612078C00602D42046AFF3008092
:103F5000002608E0D4E901211AF806009047206AFB
:103F6000401C761C20624E45F4DB2078C0060AD542
:103F70002046AFF3008006E0D4E9012130209047CD
:103F8000206A401C2062381EA7F10107F4DC07E01C
:103F9000D4E9012118F805009047206A401C2062EE
:103FA000281EA5F10105F3DC2046AFF30080207840
:103FB000000602D50220BDE8F0870120FBE70000E3
:103FC000074B70B50D467B4400F011F804462846B7
:103FD00000F020F810B14FF0FF3070BD204670BDEA
:103FE000B5CAFFFF01694A1C02610878704700B535
:103FF0008FB0CDE901310021059105497944CDE922
:10400000031011466846FFF70DFF0FB000BD00001A
:10401000E5FFFFFF007B00F080007047754600F071
:1040200029F8AE4605006946534620F0070085464C
:1040300018B020B5FCF7ECFEBDE820404FF00006BC
:104040004FF000074FF000084FF0000B21F0070180
:10405000AC46ACE8C009ACE8C009ACE8C009ACE8C3
:10406000C0098D4670470446AFF300802046FCF738
:10407000CBF80000004870477802002021F0004291
:10408000A2F16052B2F5801F01F0004328BFD2F1C7
:104090007F6C0BD95FEA001C43EAC20242EB50700E
:1040A00018BF704728BF20F001007047B2F5801F8D
:1040B000BCBF184670474FEA410C1CF5001F02D2E6
:1040C000084600F09ABE70B500F0FAFA00000089C8
:1040D000FFF7F6BF4FF00040A0F5800070470000EA
:1040E00010B591EA030F48BF83F0004300F1448309
:1040F000841A71EB030C05D2121943EB0C03001B5D
:1041000061EB0C01DFF824E14FEA1154A4EB135CDE
:104110001EEA430F18BF9EEA445F73D023EA0E03E2
:10412000DCF1200E21EA045143F4801332D322FA49
:104130000CFE10EB0E0023FA0CFE41EB0E01CCF14D
:10414000200E03FA0EFE10EB0E0051F10001B1F546
:10415000801FCCF1200E32D201EB045112FA0EF284
:10416000BDE8104058BF7047401C38BF5FEA4202AC
:1041700018BF7047002814BF20F0010041F1000172
:104180004FEA410313F5001F38BF7047A1F1C0414A
:1041900000F0E4BA012A43EB0302ACF1200CDCF19D
:1041A0001F0E32BF4FF0000E23FA0CF310EB03008A
:1041B00041EB0451B4EB115FD0D0A1EB045101F5F8
:1041C000801149085FEA300001EB04510ED350F131
:1041D000000038BF12FA0EFE08D1BDE81040C9E752
:1041E000401C38BF5FEA4202CAD1C3E7BDE81040B5
:1041F0004FEA410313F5001F38BF7047A1F1C041DA
:1042000000F0ACBA9EEA445F08D011EA5E0FBDE848
:10421000104004BF01F0004100207047BDE810408D
:1042200070B500F04DFA00BF64FBBE3E0000E0FF39
:104230002DE9C04130B4DFF8A0C23CEA111418BF28
:104240003CEA131400F0EC8081EA03051CEA111427
:1042500044EAD57418BF1CEA131500F0C780A4EB1C
:1042600005044FF0004545EAC12145EAC32341EA70
:10427000505143EA525304F17F74994204F50034DB
:104280004FEAC0204FEAC22208BF904200F09C8053
:104290004FEA13650FF24016765D4FEA134506FBB1
:1042A00005F7C7F1807706FB07F74FEAD737A7FB7B
:1042B00003687642C8F58038A7FB06CE38BFA8F160
:1042C000010807FB08E64FF0000EA6FB028CE6FB98
:1042D00003CEDCF1000CCEF1004E38BFAEF1010E82
:1042E000A6FB0C584FF000074FF00005E6FB0E87C9
:1042F000A1FB08C6A0FB07CE16EB0E0645F1000594
:10430000E1FB076515F1E04E7EBFA4F580345FEA5E
:1043100046066D4116F1800745F100054FEA172763
:104320004FEA066647EA0567A6F1DE46B6F1805F0A
:104330004FEA15251FD9384624F0010C05EBC4714E
:10434000BCF1FE6F01EB0C1102D8F0BCBDE800819E
:1043500024425CBF01F5801E9EEAC47F02D4F0BCFB
:10436000BDE80081244238D4F0BCA1F1C041BDE8D1
:10437000004100F0F3B94FEAD22242EA43524FEA39
:10438000D323A7FB02864FEAD02040EA415007FB27
:1043900003661EEA0E0F4FEAD12105FB026658BFE5
:1043A000A6EB0056B6EB00564FEA520E4EEAC37E1D
:1043B00018EB0E0E56EB530EBDD518EB02085E41FE
:1043C0007F1C55F10005B6E74FF480154FF000074C
:1043D0004FF000064FF00008ADE7F0BC4FF00000D2
:1043E00001F1C04101F00041BDE8008111EA0C1F5C
:1043F0000CEA131500D00CE013EA0C1F00F0258026
:104400004FF00000F0BC81EA030101F00041BDE87B
:104410000081F0BCBDE8004181EA030100F09EB9D3
:10442000F0BCBDE8004170B500F04AF9097EFC3EE1
:1044300000F007B881EA03014FF0000001F00041ED
:10444000704781EA030100F089B9F0BCBDE8004182
:104450004FF0000021497047FFFDFBF9F7F5F4F23A
:10446000F0EEEDEBE9E8E6E4E3E1E0DEDDDBDAD80F
:10447000D7D5D4D3D1D0CFCDCCCBCAC8C7C6C5C46D
:10448000C2C1C0BFBEBDBCBBBAB9B8B7B6B5B4B384
:10449000B2B1B0AFAEADACABAAA9A8A8A7A6A5A46F
:1044A000A3A3A2A1A09F9F9E9D9C9C9B9A99999833
:1044B0009797969595949393929191908F8F8E8ED6
:1044C0008D8C8C8B8B8A8989888887878685858463
:1044D00084838382828181800000FF070000F87F4F
:1044E0004FEA41034FEA5353A3F58063D3F11E0310
:1044F000C8BFD3F1210C0CDD4FF0004242EAC122CB
:1045000042EA505232FA03FC8CEAE17CACEBE170F7
:104510007047102BC4BF0020704703F5787CBCF1B6
:10452000FF3F04D06FF0004282EA2100704770B56F
:1045300000F0C6F84992248000207047F2E710F09E
:10454000004248BF4042B0FA80F310FA03F10AD0AB
:10455000C3F11D0303F580634FEA415002EB0352A0
:1045600002EBD12170474FF000007047DFF848C1DF
:1045700070B51CEA111E1EBF1CEA13159EEA0C0F33
:1045800095EA0C0F00F06F8081EA030423EA4C13D4
:104590004EEAD47E21EA4C1141F4801143F4801399
:1045A000AE44A1FB024CA0FB0365AEF17F7E361941
:1045B00055EB0C05A1FB034C4CF10003A0FB021CC6
:1045C00016EB0C06654153F10003094218BF46F093
:1045D000010613F4007F0BD14FEA03314FEA053097
:1045E000340341EA155140EA16506FF003020AE025
:1045F0004FEAC3214FEAC520F40241EA555140EA8F
:1046000056506FF0020202EB2E4201EB025585EA92
:10461000CE710AD05FEA440C18BF24F0004450F178
:10462000000041F1000120EAD47040F2FE7C6245B6
:1046300000D270BDA84214BF4FF080444FF04044F8
:10464000002E08BF0024BEF1806FA8BFA1F1C041B9
:10465000BDE8704080F282804FF0000001F1C0415F
:1046600001F0004170479EEA0C0F0CEA131518BFC9
:1046700095EA0C0F06D04FF0000081EA030E0EF011
:10468000004170BD00F01CF88900013E00F007B841
:1046900000F009B84FEA430C5FEA5C5C08D081EA9D
:1046A000030100F05BB84FEA410C5FEA5C5CF6D1B5
:1046B0004FF00000014970470000FF070000F87F3D
:1046C0000EF1020E2EF0030E5EF8046B364205D496
:1046D000012A43EB030515F5001F12D8012841EB11
:1046E000010C1CF5001F0CD80ED14FEAD17C15F53A
:1046F000001F0CEB4C0C0CF1020C08BF4CEBD37CF4
:1047000004E04FF0080C01E04FEAD37C0CEB4C05C1
:1047100026FA05F606F00706B6F1040C06D20EEBF3
:10472000860CBDE870404CF0010C6047DFE80CF0EF
:10473000090B02024FF000414FF00000A1F50021EB
:1047400070BD19461046012851EB010418BFD4F57D
:10475000001484BF002001F0004170BD0808A0F5DE
:1047600000114FEA3101704710B591EA030F48BFBD
:1047700083F000433FF5BCAC841A71EB030C07D205
:1047800012198CF0004C43EB0C03001B61EB0C0185
:10479000DFF8A4E14FEA1154A4EB135C1EEA430FC7
:1047A00018BF9EEA445F00F0B08023EA6E035242D5
:1047B00021EA0451C3EB6E0338BF5B1EDCF1200E0F
:1047C00025D322FA0CFE10EB0E0043FA0CFE41EB4F
:1047D0000E01CCF1200E03FA0EFE10EB0E0051F18B
:1047E0000001CCF1200E29D412FA0EF201EB045193
:1047F000BDE8104058BF7047401C1CBFB2F1004FCD
:10480000704700280CBF491C20F00100704712EBD4
:10481000020E43EB030218BF4FF0010E4EEA4202B4
:10482000ACF1200CDCF11E0E54D943FA0CFE10EB57
:104830000E0051F1FF31CCF11E0ED5D50EF1010E57
:1048400012FA0EFE404141EB010101EB445C5FEACC
:104850005C5C10D910EBDE7001EB045138BFBEF187
:10486000004FBDE8104018BF704700280CBF491C1E
:1048700020F00100704730D24FEAD42C11F500111E
:1048800024F400641BD0B1FA81F20B3AA41AA41EDE
:10489000D2F12003914030FA03F31943904001EB29
:1048A000CC71002C01EB0451BDE81040A8BF70474B
:1048B00001F1C0414FF0000001F000417047B0FA33
:1048C00080F310FA03F100D110BDE41A173C48053B
:1048D000C90AE4E701EB045110BD491001EB045192
:1048E000BDE810404FEA300002E04FF00001704791
:1048F0004A0008BF0042F8D0B2F5001F28BF704739
:1049000001F000414FF0000070479EEA445F07D07D
:1049100011EA5E0FBDE8104004BF0021002070477F
:10492000BDE8104070B5FFF7CBFE00BF40DFF63E9C
:1049300083F00041104670470000E0FF90EA010F4D
:1049400048BF81F0004100F19682421A3CBF801AB4
:1049500089184FEAD0524FF07F4C1CEA410FA2EB6E
:10496000D15318BF9CEA026F00F03B804FF0004C1F
:104970004CEA00204CEA012121FA03FC10EB0C0C5C
:104980001ED202F1FF325FEA1C2040EBC25038BF5A
:1049900070471CF07F0F4FEA400C18BFBCF17F4FEF
:1049A00038BF7047C3F12003994008BF20F00100D1
:1049B000BCF17F4F38BF7047A0F1C04000F01DBA76
:1049C0004FEA3C00000A40EBC25028BF1CF0FF0F2A
:1049D0004FEA400CE6D018BFBCF17F4F38BF70479C
:1049E000EAE79CEA026F05D010EA5C0F08BF00F00E
:1049F0000040704710B500F0BAF900BF64FBBE3E3E
:104A0000401058BFC0F14040491058BFC1F140416B
:104A10008142EFF3008070474FF47F0C1CEAD01204
:104A20001EBF1CEAD11392EA0C0F93EA0C0F00F0A0
:104A3000858090EA010F48BF42F4807240F4000C78
:104A400041F400002CF07F4120F07F4000B581420E
:104A5000A2EB03020FF2081CACEB504EC0F10000B9
:104A60009EF800E04FEA4E0E00FB0EFC38BF4900F6
:104A70004FEA2C1C02F5FA020CFB0EF34FEACE1E95
:104A80004FEA112C4FEAC1210EEB635E42EB22424A
:104A90000EFB0CFC4FEA1C5300FB03114FEA112CD8
:104AA0004FEA01310EFB0CFC4FEADC4C00FB0C1111
:104AB000C14228BF09184CEB03335DF804EB10EB3F
:104AC000410143EBC250B2F57C0F38BF704729D586
:104AD00012F0F00F1CBF00F1C04000F00040704722
:104AE000008182838485868788898B8C8D8E8F91C7
:104AF0009293959697999A9C9D9FA0A2A3A5A7A8EB
:104B0000AAACAEB0B2B3B5B7B9BCBEC0C2C5C7C916
:104B1000CCCED1D4D7D9DCDFE2E6E9ECF0F3F7FA7A
:104B2000FE0000004FEA400C0CF1807CBCF17E4F8F
:104B300028BF7047B0F1C04000F05FB990EA010FA4
:104B40000CEAD11348BF42F48072624538BF634516
:104B500007D213F47F0F16D080EA010000F0004066
:104B6000704710B500F003F9097EFC3E00F005B86F
:104B700080EA010000F00040704780EA010000F088
:104B8000004000F03AB912F47F0F04BF02487047AA
:104B900080EA010000F031B90000C07F41000B0E37
:104BA000D3F19E0208D950F400034FEA032323FAFD
:104BB00002F048BF4042704710B500F0D8F800BF7F
:104BC00049922480002070476FF0004282EA200062
:104BD0007047000010F0004148BF4042B0FA80F337
:104BE00010FA03F2C3F19D030BD051EAC35101EB5C
:104BF0001220530638BF704700F1010008BF20F0B3
:104C00000100704750EA010C00F113801CF5000F01
:104C100058BFBCF5000F01D48842704707D710F584
:104C2000000F58BF11F5000F15D488427047894214
:104C300070471CF5000F04D5BCF5000FF7D5814275
:104C400070474FF0807C1CEB400F38BF1CEB410FCE
:104C500001D28142704710B500F089F892244900D2
:104C60004FF000504FF08051FFF7CABE4FF47F0C59
:104C70001CEAD0121EBF1CEAD11392EA0C0F93EA71
:104C80000C0F00F0478090EA010F48BF42F4807299
:104C90004FF0004C4CEA00204CEA012102EB0302E9
:104CA000A0FB0113A2F50002002918BF43F0010385
:104CB0005B0028BF4FEA330342EB22425FEA132C2A
:104CC0004CEBC2502EBFBCEB436FB2F57C0F70476C
:104CD0004FEA036CBCF1004F08BF20F00100B2F5B1
:104CE0007C0F38BF70470BD582F0FF0212F5803F72
:104CF000C8BF704700F1C040D8BF00F00040704707
:104D000000F5000C5FEA4C0C48BF7047B0F1C040A2
:104D100000F073B890EA010F0CEAD11348BF42F4D7
:104D20008072624538BF634504D280EA010000F01A
:104D30000040704710B500F01AF800BF8900013E2E
:104D400000F007B800F009B85FEA410C5FEA1C6C9C
:104D500008D080EA010000F050B85FEA400C5FEA3A
:104D60001C6CF6D14FF00040A0F5800070470EF1AA
:104D7000020E2EF0030E5EF8044B244204D44FEAD8
:104D80004102B2F17F4F11D84FEA4003B3F17F4F98
:104D90000CD80ED14FEAD07CB2F17F4F0CEB4C0C0B
:104DA0000CF1020C08BF4CEBD17C04E04FF0080C76
:104DB00001E04FEAD17C0CEB4C0324FA03F404F03D
:104DC0000704B4F1040C06D20EEB840CBDE81040CD
:104DD0004CF0010C6047DFE80CF0070802024FF0CE
:104DE0000040A0F5800010BD0846420018BFD2F177
:104DF000807288BF00F0004010BDFF2141EAD05012
:104E0000C005704751EA000C00F113801CF5000F3B
:104E100058BFBCF5000F01D48142704707D711F588
:104E2000000F58BF10F5000F15D48142704789421A
:104E300070471CF5000F04D5BCF5000FF7D588426C
:104E400070474FF0807C1CEB410F38BF1CEB400FCC
:104E500001D28842704780EA010081EA000180EABD
:104E60000100FFF7F8BE000090EA010F48BF81F093
:104E700000413FF56AAD421A04D882F00042A0EB2F
:104E8000020011444FEAD0524FF07F4C1CEA410F10
:104E9000A2EBD15318BF9CEA026F4AD04FF0004CEE
:104EA0004CEA00204CEA012121FA03FCB0EB0C0C87
:104EB0000FD412F0FE0F36D05FEA4C001DD5001261
:104EC00040EBC25038BF70471CF03F0F18BF70470F
:104ED0000BE0A2F101025FEA1C2040EBC25038BF98
:104EE00070471CF07F0F18BF7047C3F12003994033
:104EF00014BF401E20F00100704780084FEA1223C3
:104F000008BF7047B0FA80FCA2EB0C02CCF1280C71
:104F100060FA0CF093EA122F04BF00EBC250704706
:104F20004FEAC3707047130A5FEADC1008BF70478E
:104F3000F6E79CEA026F04D010EA5C0F08BF00207D
:104F4000704710B5FFF713FF40DFF63E81F00040D9
:104F500070470000744F0008000000207801000036
:104F60006C010008F04F0008780100206007000085
:104F7000C8010008012184A24A0440090102030477
:104F8000060708095A6404A1291E692205120204B1
:104F9000060832012CF401F407312740406F120358
:104FA0003C031CC040325038100901030206040CB7
:104FB00008080C0406020301804132BB0A112D8C43
:104FC000720579B931320A1AFF0169202985320345
:104FD0009A0B2829102924692869B4416975A91CEC
:104FE0009A064CC12954021B6322D40200200000FF
:0400000508000131BD
:00000001FF
